{
  "_format": "hh-sol-artifact-1",
  "contractName": "pagar",
  "sourceName": "contracts/pagar.sol",
  "abi": [
    {
      "inputs": [],
      "stateMutability": "nonpayable",
      "type": "constructor"
    },
    {
      "anonymous": false,
      "inputs": [
        {
          "indexed": true,
          "internalType": "address",
          "name": "payer",
          "type": "address"
        },
        {
          "indexed": false,
          "internalType": "uint256",
          "name": "amount",
          "type": "uint256"
        }
      ],
      "name": "PaymentReceived",
      "type": "event"
    },
    {
      "inputs": [],
      "name": "owner",
      "outputs": [
        {
          "internalType": "address payable",
          "name": "",
          "type": "address"
        }
      ],
      "stateMutability": "view",
      "type": "function"
    },
    {
      "inputs": [],
      "name": "sendPayment",
      "outputs": [],
      "stateMutability": "payable",
      "type": "function"
    },
    {
      "inputs": [],
      "name": "withdrawBalance",
      "outputs": [],
      "stateMutability": "nonpayable",
      "type": "function"
    },
    {
      "stateMutability": "payable",
      "type": "receive"
    }
  ],
  "bytecode": "0x608060405234801561001057600080fd5b50336000806101000a81548173ffffffffffffffffffffffffffffffffffffffff021916908373ffffffffffffffffffffffffffffffffffffffff160217905550610461806100606000396000f3fe6080604052600436106100385760003560e01c80635fd8c710146100925780636720ceb1146100a95780638da5cb5b146100b35761008d565b3661008d573373ffffffffffffffffffffffffffffffffffffffff167f6ef95f06320e7a25a04a175ca677b7052bdd97131872c2192525a629f51be7703460405161008391906102a5565b60405180910390a2005b600080fd5b34801561009e57600080fd5b506100a76100de565b005b6100b1610218565b005b3480156100bf57600080fd5b506100c8610268565b6040516100d59190610301565b60405180910390f35b60008054906101000a900473ffffffffffffffffffffffffffffffffffffffff1673ffffffffffffffffffffffffffffffffffffffff163373ffffffffffffffffffffffffffffffffffffffff161461016c576040517f08c379a00000000000000000000000000000000000000000000000000000000081526004016101639061039f565b60405180910390fd5b600047116101af576040517f08c379a00000000000000000000000000000000000000000000000000000000081526004016101a69061040b565b60405180910390fd5b60008054906101000a900473ffffffffffffffffffffffffffffffffffffffff1673ffffffffffffffffffffffffffffffffffffffff166108fc479081150290604051600060405180830381858888f19350505050158015610215573d6000803e3d6000fd5b50565b3373ffffffffffffffffffffffffffffffffffffffff167f6ef95f06320e7a25a04a175ca677b7052bdd97131872c2192525a629f51be7703460405161025e91906102a5565b60405180910390a2565b60008054906101000a900473ffffffffffffffffffffffffffffffffffffffff1681565b6000819050919050565b61029f8161028c565b82525050565b60006020820190506102ba6000830184610296565b92915050565b600073ffffffffffffffffffffffffffffffffffffffff82169050919050565b60006102eb826102c0565b9050919050565b6102fb816102e0565b82525050565b600060208201905061031660008301846102f2565b92915050565b600082825260208201905092915050565b7f4f6e6c7920746865206f776e65722063616e2063616c6c20746869732066756e60008201527f6374696f6e000000000000000000000000000000000000000000000000000000602082015250565b600061038960258361031c565b91506103948261032d565b604082019050919050565b600060208201905081810360008301526103b88161037c565b9050919050565b7f4e6f2062616c616e636520746f20776974686472617700000000000000000000600082015250565b60006103f560168361031c565b9150610400826103bf565b602082019050919050565b60006020820190508181036000830152610424816103e8565b905091905056fea26469706673582212203b1e1cb8a556406b23d8c092b03ac65f27e021e69de08029faf96f27c48a45bd64736f6c63430008110033",
  "linkReferences": {},
  "deployedLinkReferences": {}
}